:10000000D1EF01F00000000000EF00F00000000060
:0A0010000000000000000000F3D71C
:0C001C00100E0D6E0D2EFED7000012001D
:10002800080E0C6E230E0D6E0D2EFED70C2EFCD76F
:020038001200B4
:04003A0000001200B0
:10003E000001906B926B936B100E946F040E935D98
:10004E001DE2F00E816E941D936EF0DFEFDF0F0E4A
:10005E008114006E00C091F000520AE092C090F040
:10006E00915304E09133919F902BFAD7040E936F26
:10007E0094379491040E9227932BE0D790C000F002
:02008E0012005E
:0A009000030E0D6E0D2EFED71200B8
:10009A00000190BF02D0839E01D0838E90BD02D012
:1000AA00839C01D0838C90BB02D0839A01D0838A2F
:1000BA0090B902D0839801D0838887B102D0838017
:1000CA0001D083908382B4DF839290B702D0839E5B
:1000DA0001D0838E90B502D0839C01D0838C90B3DB
:1000EA0002D0839A01D0838A90B102D0839801D03A
:1000FA00838887B102D0838001D08390838298DF7E
:0E010A00839287A102D08BDF01D083DF120029
:1001180092DF00C08FF00F0E8114006E02E0B4DF92
:08012800FAD78FC000F01200AD
:0E013000000187918FC090F0B0DF8781120030
:06013E00FF0E936E12009B
:100144000900F5CFE6FF0006FBE10106F9E1120024
:10015400959295909598959A959C959E8392839067
:10016400839E839C839A83985DDF5CDF5BDF838A55
:100174008388838260DF839255DF83825CDF83928E
:1001840051DF838258DF83924DDF8398838253DF6C
:10019400839248DF83824FDF8392839A838E8382A4
:1001A4004ADF83923FDF839E8388838244DF839286
:1001B4008398838240DF839235DF83823CDF83929E
:1001C4008388838238DF83922DDF8398838233DFB1
:1001D4008392838E838C838A838883822CDF8392A9
:0801E40021DF000187811200F8
:1001EC0010D0800E00018A6F1AD0C00E8A6F17D003
:1001FC00940E8A6F14D0D40E8A6F11D0800E8A6F31
:10020C000ED000018A51010AECE08A51020AEDE09D
:10021C008A51030AEDE08A51040AEDE0EFD78B0511
:10022C00006E8A51002600C08AF0878100C090F0D1
:0E023C002EDF87918CC090F02ADF87811200A0
:10024A000001866B64DF00C086F00052FBE030D00C
:10025A00310E866F5DD0320E866F5AD0330E866F9E
:10026A0057D0410E866F54D0340E866F51D0350E5A
:10027A00866F4ED0360E866F4BD0420E866F48D0B0
:10028A00370E866F45D0380E866F42D0390E866F8C
:10029A003FD0430E866F3CD02A0E866F39D0300E7F
:1002AA00866F36D0230E866F33D0440E866F30D0D9
:1002BA008651010ACDE08651020ACDE08651030A31
:1002CA00CDE08651040ACDE08651050ACDE086517B
:1002DA00060ACDE08651070ACDE08651080ACDE02C
:1002EA008651090ACDE086510A0ACDE086510B0AE9
:1002FA00CDE086510C0ACDE086510D0ACDE086513B
:10030A000E0ACDE086510F0ACDE08651100ACDE0E3
:0A031A0086C000F0000E016E120014
:1003240010D0800E00018A6F1AD0C00E8A6F17D0C9
:10033400940E8A6F14D0D40E8A6F11D0800E8A6FF7
:100344000ED000018A51010AECE08A51020AEDE064
:100354008A51030AEDE08A51040AEDE0EFD78B05D8
:10036400006E8A51002600C08AF000C090F093DE2F
:1003740087918E6B8E518C25E96E000E8D21EA6E6D
:10038400EE520BE08E518C25E96E000E8D21EA6E43
:0E039400EECF8FF0CBDE8E2BEDD787811200DF
:1003A200CBEC02F00F0EC16E946AD3DE0C0E906F8E
:1003B20073DEC4DE010E8A6F010E8B6F360E8C6FF8
:1003C200000E8D6FAEDF020E8A6F010E8B6F2D0E47
:1003D2008C6F000E8D6FA5DF280E1F24886F000E14
:1003E2002020896F31DF88C0E1FF89C0E2FF00C0B1
:1003F200E6FF2A0E8F6F9BDE1F4A202A000E20186E
:1004020002E1040E1F18D8A48AD0010E906F44DEB8
:10041200010E8A6F010E8B6F150E8C6F000E8D6FA1
:1004220080DF1F6A206A800E006E800E2018005C3A
:1004320002E11F50030829E3230E1F24E96E000E78
:100442002020EA6E280E1F24D96E000E2020DA6EBC
:10045200EE50DE1802E0214A222A020E8A6F1F5055
:10046200010F8B6F2A0E8C6FC0DE020E0B6E040E14
:100472000C6EBA0E0D6E0D2EFED70C2EFCD70B2E67
:10048200FAD700001F4A202ACED7000E221802E116
:10049200000E21180FE182808292010E906FFCDD26
:1004A200010E8A6F010E8B6F590E8C6F000E8D6FCD
:1004B20038DF0ED082908282010E906FEDDD010E48
:1004C2008A6F010E8B6F480E8C6F000E8D6F29DFC5
:1004D2000B0E0B6E260E0C6E5D0E0D6E0D2EFED7E4
:1004E2000C2EFCD70B2EFAD700000000010E906FE5
:1004F200D3DD010E8A6F010E8B6F740E8C6F000EAE
:100502008D6F0FDF020E8A6F010E8B6F6B0E8C6F79
:10051200000E8D6F06DF1F6A206A216A226A5CD78D
:02052200FFD701
:1005960010EE15F0710E006E010E016E240EF66E51
:0E05A600050EF76E000EF86EA2EC00F01200CB
:0A05240056414C4944414E444F003B
:02052E000000CB
:020530000000C9
:050532003132333400FA
:0505370020000000009F
:09053C00434F4E5452413A200095
:1005450044494749544520434F4E54524153454E23
:02055500410063
:100557004552524F5220434F4E54524153454E41FC
:010567000093
:10056800434F4E54524153454E412056414C494405
:02057800410040
:09057A00434F4E5452413A200057
:1005830044494749544520434F4E54524153454EE5
:02059300410025
:020000040030CA
:0E000000000C1F1EFF8381FF0FC00FE00F409A
:00000001FF
